:100000000C9454000C94D6000C94D6000C94D6009A
:100010000C94D6000C94D6000C94D6000C94D60008
:100020000C94D6000C94D6000C94D6000C94D600F8
:100030000C94D6000C94D6000C94D6000C94D600E8
:100040000C94D6000C94D6000C94D6000C94D600D8
:100050000C94D6000C94D6000C94D6000C94D600C8
:100060000C94D6000C94D6000C94D6000C94D600B8
:100070000C94D6000C94D6000C94D6000C94D600A8
:100080000C94D6000C94D6000C94D6000C94D60098
:100090000C94D6000C94D6000C94D6000C94D60088
:1000A0000C94D6000C94D600809101108F7C806057
:1000B000806898ED94BF8093011011241FBECFEF8C
:1000C000CDBFDFE7DEBF0E9469000C94CB00F8943F
:0200D000FFCF60
:1000D20088ED84BF84E180936800E0E6F0E08581EA
:1000E20080FDFDCFE0E0FAE089E080838FEF9FEFB3
:1000F20086A397A380E18093010422E33BE44EEEC2
:1001020052E060E070E0A0E0B4E00F2EFEE3CF2EFC
:10011200F02D0F2EF9E4DF2EF02D0F2EF2EEEF2E42
:10012200F02D6894FF24F2F802E31BE4DEEEC2E055
:1001320014968C9114978F7E14968C93149780A1A9
:1001420091A128173907D8F710A211A214968C9101
:100152001497806114968C93149780A191A14817EB
:100162005907D8F710A211A26233710584F04E3EEE
:10017200524039F0202F312F4D2F5C2F60E070E07C
:1001820006C02C2D3D2D4E2D5F2D60E070E06F5F7F
:040192007F4FCECFFE
:10019600EC010E94DB000E94DA00CE010E94DC0026
:0601A600CE010E94D8000A
:0401AC000C940000AF
:0401B0000E94670042
:0201B4000895AC
:0201B6000895AA
:0201B8000895A8
:00000001FF
