:100000000C9454000C9440030C9440030C94400353
:100010000C9440030C9440030C9440030C94400354
:100020000C9440030C9440030C9440030C94400344
:100030000C9440030C9440030C9440030C94400334
:100040000C9440030C9440030C9440030C94400324
:100050000C9440030C9440030C9440030C94400314
:100060000C9440030C9440030C9440030C94400304
:100070000C9440030C9440030C9440030C944003F4
:100080000C9440030C9440030C9440030C944003E4
:100090000C9440030C9440030C9440030C944003D4
:1000A0000C9440030C944003809101108F7C80607D
:1000B000806898ED94BF8093011011241FBECFEF8C
:1000C000CDBFDFE7DEBF0E9469000C940403F89403
:0200D000FFCF60
:1000D200E0E0F4E081818F70818383E00E94F70287
:1000E20084EA96E00E94870288ED84BF8CE18093C7
:1000F2006800E0E6F0E0858180FDFDCF00E010E0E1
:10010200212C312C412C512CA12CB12C612C712C85
:10011200C0E0D4E083E00E94C3026C0184E00E944C
:10012200C3027C019C012A193B098885082E000C18
:10013200990B80959095892E881C8824881C912C77
:10014200C901992324F488279927821B930B0697C8
:100152007CF4960126193709C901992324F48827CA
:100162009927821B930B06971CF44814590431F10A
:10017200B7010F2C000C880B990B0E94D80120E0CC
:1001820030E040E85DE30E9439030E9417032B012F
:100192003C01B6010D2C000C880B990B0E94D80172
:1001A20020E030E040E85DE30E9439030E9417033B
:1001B200DC01CB01A401B2010E940101888588857E
:1001C200888584FD0EC0012B79F481E0232809F093
:1001D20080E0282E312CC1010E94E70201E010E0EC
:1001E20005C000E010E002C001E010E083EC99E0FD
:1001F2000197F1F700C000003601570124018ACFB0
:10020200EF92FF920F931F93CF93DF93CDB7DEB799
:100212002C97CDBFDEBF7B018A0119821A821B8215
:100222001C821D821E821F82188619861A861B86D0
:100232001C869E012B5F3F4FAE014D5F5F4FBE019B
:100242006F5F7F4F0E9442029E01255F3F4FAE01CA
:10025200475F5F4FBE01695F7F4FC7010E94420245
:1002620084E390E00E940F03012B29F084E390E0E5
:100272000E940F0304C083E390E00E940F03898170
:100282009A81C0960E940F038B819C81C0960E9426
:100292000F038D819E81C0960E940F038F819885E6
:1002A200C0960E940F0389859A85C0960E940F030B
:1002B2008B859C85C0960E940F0380E090E00E948F
:1002C2000F032C96CDBFDEBFDF91CF911F910F910F
:0602D200FF90EF9008957B
:1002D8000FC00E94250338F00E942C0320F09523BC
:1002E80011F00C9433030C943D0311240C941F0358
:1002F8000E94650270F3959FC1F3950F50E0551F5A
:10030800629FF001729FBB27F00DB11D639FAA2762
:10031800F00DB11DAA1F649F6627B00DA11D661FB1
:10032800829F2227B00DA11D621F739FB00DA11DD2
:10033800621F839FA00D611D221F749F3327A00D8C
:10034800611D231F849F600D211D822F762F6A2F28
:1003580011249F5750409AF0F1F088234AF0EE0F8D
:10036800FF1FBB1F661F771F881F91505040A9F7BA
:100378009E3F510580F00C9433030C941F035F3F9C
:10038800E4F3983ED4F3869577956795B795F795F6
:10039800E7959F5FC1F7FE2B880F911D969587956E
:0403A80097F9089524
:1003AC00E89409C097FB3EF4909580957095619503
:1003BC007F4F8F4F9F4F9923A9F0F92F96E9BB27B9
:1003CC009395F695879577956795B795F111F8CF35
:1003DC00FAF4BB0F11F460FF1BC06F5F7F4F8F4FA0
:1003EC009F4F16C0882311F096E911C0772321F096
:1003FC009EE8872F762F05C0662371F096E8862F2E
:10040C0070E060E02AF09A95660F771F881FDAF784
:0A041C00880F9695879597F90895CB
:100426000E946D0288F09F5798F0B92F9927B7510F
:10043600B0F0E1F0660F771F881F991F1AF0BA9582
:10044600C9F714C0B13091F00E941E03B1E00895BF
:100456000C941E03672F782F8827B85F39F0B93FB1
:10046600CCF3869577956795B395D9F73EF4909535
:0E0476008095709561957F4F8F4F9F4F089531
:100484000F931F93CF93DF93EC01FB018A0164E682
:1004940070E00E949B0260837183EAE0F0E0CE0189
:1004A400BF010E949B02EC01CB01BF010E949B0291
:1004B400F80180839183F901C083D183DF91CF91C7
:0604C4001F910F91089545
:1004CA0057FD9058440F551F59F05F3F71F04795FB
:1004DA00880F97FB991F61F09F3F79F087950895E0
:1004EA00121613061406551FF2CF4695F1DF08C0FF
:1004FA00161617061806991FF1CF8695710561051C
:04050A0008940895B4
:10050E00E0E2F8E08AE09AE18087918783E08783D2
:10051E00A0E4B4E081E011968C93119782E01296DC
:08052E008C9380EC8683089594
:1005360097FB072E16F4009407D077FD09D00E948A
:10054600AF0207FC05D03EF4909581959F4F089524
:08055600709561957F4F089537
:10055E00AA1BBB1B51E107C0AA1FBB1FA617B707DB
:10056E0010F0A61BB70B881F991F5A95A9F78095F7
:08057E009095BC01CD01089528
:10058600E0E0F6E0808788E08A95F1F7000081E0F8
:100596008287858580FFFDCFE0E0F6E081E08587F4
:0605A6008089918908958F
:1005AC00092E0394000C11F4882352F0BB0F40F475
:1005BC00BF2B11F460FF04C06F5F7F4F8F4F9F4FB5
:0205CC00089590
:1005CE00892B29F085E390E00E940F0304C086E397
:1005DE0090E00E940F0380E090E00E940F030895C8
:1005EE0085E08093B000E0E0F6E081E88083118240
:0A05FE0087E0828380E090E008951A
:10060800EC010E9445030E944403CE010E94460368
:06061800CE010E94420326
:10061E00E0E2F8E0948195FFFDCF809322080895E3
:0E062E000E9413026894B1110C941F030895EA
:0E063C00E894BB2766277727CB0197F908952E
:0E064A0000240A9416161706180609060895CD
:0E06580000240A9412161306140605060895CF
:0C06660097F99F6780E870E060E008955D
:080672000E946C010C94D602F9
:06067A009FEF80EC0895E3
:040680000C940000D6
:040684000E94670069
:020688000895D3
:02068A000895D1
:02068C000895CF
:00000001FF
