:100000000C9454000C94A1000C94A1000C94A10039
:100010000C94A1000C94A1000C94A1000C94A100DC
:100020000C94A1000C94A1000C94A1000C94A100CC
:100030000C94A1000C94A1000C94A1000C94A100BC
:100040000C94A1000C94A1000C94A1000C94A100AC
:100050000C94A1000C94A1000C94A1000C94A1009C
:100060000C94A1000C94A1000C94A1000C94A1008C
:100070000C94A1000C94A1000C94A1000C94A1007C
:100080000C94A1000C94A1000C94A1000C94A1006C
:100090000C94A1000C94A1000C94A1000C94A1005C
:1000A0000C94A1000C94A100809101108F7C8060C1
:1000B000806898ED94BF8093011011241FBECFEF8C
:1000C000CDBFDFE7DEBF0E9488000C947D00F8946E
:0200D000FFCF60
:1000D200E0E2F8E084EA96E08087918783E0878314
:1000E200A0E4B4E081E011968C93119782E012961D
:0800F2008C9380EC86830895D5
:1000FA00EC010E94A6000E94A500CE010E94A70062
:06010A00CE010E94A300DB
:1001100087E690E00E9469000E9499000E94910089
:02012000FBCF13
:10012200E0E2F8E0948195FFFDCF809322080895E4
:10013200E0E2F8E084818823ECF7809120080895BA
:040142000C94000019
:040146000E946700AC
:02014A00089516
:02014C00089514
:02014E00089512
:00000001FF
