:100000000C9454000C9455010C9455010C9455011A
:100010000C9455010C9455010C9455010C94550108
:100020000C9455010C9455010C9455010C945501F8
:100030000C9455010C9455010C9455010C945501E8
:100040000C9455010C9455010C9455010C945501D8
:100050000C9455010C9455010C9455010C945501C8
:100060000C9455010C9455010C9455010C945501B8
:100070000C9455010C9455010C9455010C945501A8
:100080000C9455010C9455010C9455010C94550198
:100090000C9455010C9455010C9455010C94550188
:1000A0000C9455010C945501809101108F7C806057
:1000B000806898ED94BF8093011011241FBECFEF8C
:1000C000CDBFDFE7DEBF0E9469000C944A01F894BF
:0200D000FFCF60
:1000D200CF93DF93CDB7DEB72A97CDBFDEBFE0E087
:1000E200F4E081818068818384EA96E00E942301A2
:1000F20088ED84BF8CE180936800E0E6F0E08581C2
:1001020080FDFDCF0E94DE000F2EF4E6BF2EF02D03
:100112000F2EC12CFAE0DF2EF02D8E010A5F1F4F49
:10012200E12C6894FF24F2F8CE0101960E940101AD
:10013200892BD1F58B8190E0C097B89E9001B99E32
:10014200300D11248C8190E0C097880F991FAC016B
:10015200440F551F440F551F840F951F820F931F85
:100162002D8130E020533109820F931FF60180A7C1
:100172001BC08081805381930E171F07D1F789819D
:10018200833069F48A81813029F4F701848180689F
:1001920084830DC0F70184818F77848308C0F701BF
:1001A20084818F77848303C0FE013196E2CF198266
:0A01B2001A821B821C821D82B7CF47
:1001BC0090E088ED84BF909361001092E6058FEF7C
:1001CC008093010480936104E0E0FAE091E0938372
:1001DC0086A387A380E880A780E482A780EC84A70D
:1001EC0080E281A780EA83A780EE85A787E78183D9
:0601FC008BE080830895F2
:10020200EF92FF920F931F93CF937C018C01C0E07A
:1002120080E197E20E943701811103C080E090E003
:100222000BC0C33629F0CF5FF80181938F01F0CF65
:10023200F701ED59FF4F1082CF911F910F91FF905F
:04024200EF9008959C
:10024600E0E2F8E08AE09AE18087918783E087839D
:10025600A0E4B4E081E011968C93119782E01296A7
:080266008C9380EC868308955F
:10026E00E0E2F8E006C09C0121503109892B41F0F3
:10027E00C90124812223BCF78091200890E00895C3
:06028E008FEF9FEF0895C1
:10029400EC010E945A010E945901CE010E945B01A7
:0602A400CE010E9457018B
:0402AA000C940000B0
:0402AE000E94670043
:0202B2000895AD
:0202B4000895AB
:0202B6000895A9
:00000001FF
