:100000000C9457000C94F4000C94F4000C94F4003D
:100010000C94F4000C94F4000C94F4000C94F40090
:100020000C94F4000C94F4000C94F4000C94F40080
:100030000C94F4000C94F4000C94F4000C94F40070
:100040000C94F4000C94F4000C94F4000C94F40060
:100050000C94F4000C94F4000C94F4000C94F40050
:100060000C94F4000C94F4000C94F4000C94F40040
:100070000C94F4000C94F4000C94F4000C94BC0068
:100080000C94F4000C94F4000C94F4000C94F40020
:100090000C94F4000C94F4000C94F4000C94F40010
:1000A0000C94F4000C94F4004000400B800080910C
:1000B00001108F7C8060806898ED94BF8093011060
:1000C00011241FBECFEFCDBFDFE7DEBFE8EAF0E0CF
:1000D00040E019C0B791A79137912791079107FD8B
:1000E0000EC097918791EF01F92FE82F0BBF079072
:1000F0000D92A217B307D9F7FE011BBE04C01D92D3
:10010000A217B307E1F7ED3AF40721F70E948C003C
:080110000C94E900F894FFCF04
:10011800E0E0F4E081818560818381818D7F818346
:1001280081E48093100281E080934202E0E2FBE0E8
:100138008583848394E091838083789400E010E43D
:10014800C0E0D4E00E94DC0083EF91E00197F1F772
:1001580000C00000F80180819181803D974020F027
:100168008C8184608C83EECF8C818B7F8C83EACFEB
:100178008F938FB78F938BB78F939F93EF93FF9343
:10018800E0E2FBE081E0868384859585E0910A4082
:10019800F0E0EE0FFF1FE050F04C80839183FF9159
:1001A800EF919F918F918BBF8F918FBF8F911895F2
:1001B800E0E0F4E08481816084838BE08A95F1F744
:0A01C80000C084818E7F84830895B7
:1001D200EC010E94F9000E94F800CE010E94FA0090
:0601E200CE010E94F600B0
:0401E8000C94000073
:0401EC000E948A00E3
:0201F000089570
:0201F20008956E
:0201F40008956C
:00000001FF
