:100000000C9458000C9415070C9415070C941507C4
:100010000C9415070C9415070C9415070C941507F0
:100020000C9415070C9415070C9415070C941507E0
:100030000C9415070C9415070C9415070C941507D0
:100040000C9415070C9415070C9415070C941507C0
:100050000C9415070C9415070C9415070C941507B0
:100060000C9415070C9415070C9415070C941507A0
:100070000C9415070C9415070C9415070C94150790
:100080000C9415070C9415070C9415070C94150780
:100090000C9415070C9415070C9415070C94150770
:1000A0000C9415070C94150740004033000E3800DF
:1000B000809101108F7C8060806898ED94BF809360
:1000C000011011241FBECFEFCDBFDFE7DEBFE8EA8E
:1000D000F0E040E019C0B791A791379127910791BF
:1000E00007FD0EC097918791EF01F92FE82F0BBF05
:1000F00007900D92A217B307D9F7FE011BBE04C0EB
:100100001D92A217B307E1F7EF3AF40721F70E9417
:0A0110008D000C94D106F894FFCF87
:10011A00CF93DF93CDB7DEB76097CDBFDEBF0E9426
:10012A008C06AE01415F5F4FBE01635F7F4FCE0118
:10013A000B960E94A00607E310E029E130E049E1AE
:10014A0050E065E070E085E090E00E9430050F2EF7
:10015A00F4E6FF2EF02DCE0101960E943C06892B73
:10016A0009F094C02B8130E020533109F29E8001BE
:10017A00F39E100D11248C8190E0C097880F991F6F
:10018A009C01220F331F220F331F820F931F080F68
:10019A00191F2D8130E020533109020F131F2E81C0
:1001AA0030E020533109F29E6001F39ED00C1124F5
:1001BA008F8190E0C097880F991F9C01220F331FEF
:1001CA00220F331F820F931FC80ED91E288530E0D5
:1001DA0020533109C20ED31E89819A81923341F488
:1001EA000058110990E8C91AD108A12CB12C17C0DE
:1001FA00933341F40058110990E8C91AD108A12C87
:10020A00B12C0DC0943349F40058110990E8C91A69
:10021A00D108AA24A394B12C02C0A12CB12C8433F6
:10022A00B1F49501A801B6018B859C850E94A003B3
:10023A009501A801B6018D859E850E94A0039501AE
:10024A00A801B6018F8598890E94A00384CF8533BF
:10025A0069F407E310E023E230E049E150E06FE09F
:10026A0070E085E090E00E94300575CF863309F092
:10027A0072CF07E310E029E130E049E150E065E0A0
:10028A0070E085E090E00E94300565CF4F8558897F
:0E029A006D857E858B859C850E94F6055CCF68
:1002A800E0E0F4E080E4858300C000C000008683BD
:1002B80094E09A95F1F7858300C000C0000086831A
:1002C80094E09A95F1F7858300C000C0000086830A
:1002D80094E09A95F1F7858300C000C000008683FA
:1002E80094E09A95F1F7858300C000C000008683EA
:1002F80094E09A95F1F7858300C000C000008683DA
:1003080094E09A95F1F7858300C000C000008683C9
:1003180094E09A95F1F7858300C000C000008683B9
:1003280094E09A95F1F7858393E09A95F1F70000A8
:10033800868300C00000858393E09A95F1F700005A
:10034800868300C00000858393E09A95F1F700004A
:10035800868300C00000858393E09A95F1F700003A
:10036800868300C00000858393E09A95F1F700002A
:10037800868300C00000858393E09A95F1F700001A
:10038800868300C00000858393E09A95F1F700000A
:10039800868300C00000858393E09A95F1F70000FA
:1003A800868300C00000858300C000C000008683EB
:1003B80094E09A95F1F7858300C000C00000868319
:1003C80094E09A95F1F7858300C000C00000868309
:1003D80094E09A95F1F7858300C000C000008683F9
:1003E80094E09A95F1F7858300C000C000008683E9
:1003F80094E09A95F1F7858300C000C000008683D9
:1004080094E09A95F1F7858300C000C000008683C8
:1004180094E09A95F1F7858300C000C000008683B8
:0804280084E08A95F1F70895C4
:10043000E0E0F4E080E4858300C000C00000868333
:1004400094E09A95F1F7858300C000C00000868390
:1004500094E09A95F1F7858300C000C00000868380
:1004600094E09A95F1F7858300C000C00000868370
:1004700094E09A95F1F7858300C000C00000868360
:1004800094E09A95F1F7858300C000C00000868350
:1004900094E09A95F1F7858300C000C00000868340
:1004A00094E09A95F1F7858300C000C00000868330
:1004B00094E09A95F1F7858300C000C00000868320
:1004C00094E09A95F1F7858300C000C00000868310
:1004D00094E09A95F1F7858300C000C00000868300
:1004E00094E09A95F1F7858300C000C000008683F0
:1004F00094E09A95F1F7858300C000C000008683E0
:1005000094E09A95F1F7858300C000C000008683CF
:1005100094E09A95F1F7858300C000C000008683BF
:1005200094E09A95F1F7858300C000C000008683AF
:1005300094E09A95F1F7858300C000C0000086839F
:1005400094E09A95F1F7858300C000C0000086838F
:1005500094E09A95F1F7858300C000C0000086837F
:1005600094E09A95F1F7858300C000C0000086836F
:1005700094E09A95F1F7858300C000C0000086835F
:1005800094E09A95F1F7858300C000C0000086834F
:1005900094E09A95F1F7858300C000C0000086833F
:1005A00094E09A95F1F7858300C000C0000086832F
:0805B00084E08A95F1F708953B
:1005B800E0E0F4E080E4858393E09A95F1F70000A9
:1005C800868300C00000858393E09A95F1F70000C8
:1005D800868300C00000858393E09A95F1F70000B8
:1005E800868300C00000858393E09A95F1F70000A8
:1005F800868300C00000858393E09A95F1F7000098
:10060800868300C00000858393E09A95F1F7000087
:10061800868300C00000858393E09A95F1F7000077
:10062800868300C00000858393E09A95F1F7000067
:10063800868300C00000858393E09A95F1F7000057
:10064800868300C00000858393E09A95F1F7000047
:10065800868300C00000858393E09A95F1F7000037
:10066800868300C00000858393E09A95F1F7000027
:10067800868300C00000858393E09A95F1F7000017
:10068800868300C00000858393E09A95F1F7000007
:10069800868300C00000858393E09A95F1F70000F7
:1006A800868300C00000858393E09A95F1F70000E7
:1006B800868300C00000858393E09A95F1F70000D7
:1006C800868300C00000858393E09A95F1F70000C7
:1006D800868300C00000858393E09A95F1F70000B7
:1006E800868300C00000858393E09A95F1F70000A7
:1006F800868300C00000858393E09A95F1F7000097
:10070800868300C00000858393E09A95F1F7000086
:10071800868300C00000858393E09A95F1F7000076
:10072800868300C00000858393E09A95F1F7000066
:08073800868300C00000089553
:100740004F925F926F927F928F929F92AF92BF92E1
:10075000EF92FF920F931F93CF93DF93EC017B01F6
:100760008A01232BA1F1072E000C880B990B0E9404
:100770008C054B015C01B801110F880B990B0E948D
:100780008C052DEC3CEC4CE45EE30E940E072B0143
:100790003C012DEC3CEC4CE45FE3C501B4010E944C
:1007A0000E07A30192010E94E6060E94EC068B014F
:1007B0002DEC3CEC4CE45FEBC501B4010E940E074C
:1007C000A30192010E94E6060E94EC0633C0072EA8
:1007D000000C880B990B0E948C054B015C01B80141
:1007E000110F880B990B0E948C052DEC3CEC4CE40E
:1007F0005FE30E940E072B013C012DEC3CEC4CE426
:100800005EE3C501B4010E940E07A30192010E949C
:10081000E6060E94EC068B012DEC3CEC4CE45EEB12
:10082000C501B4010E940E07A30192010E94E606D1
:100830000E94EC06EF85F8898C858095908189234C
:100840008083EF85F8898D858095908189238083C9
:10085000112354F4119501951109EF85F8899081C0
:100860008C85892B808302C018821982772354F4E7
:10087000719561957109EF85F88990818D85892B36
:10088000808302C01A821B82E885F9850083EA858D
:10089000FB85608381E090E0EF2811F080E090E03C
:1008A000DF91CF911F910F91FF90EF90BF90AF908C
:0E08B0009F908F907F906F905F904F90089573
:1008BE000FC00E94F30638F00E94FA0620F095232E
:1008CE0011F00C9408070C94120711240C940207D3
:1008DE000E941A0670F3959FC1F3950F50E0551FB5
:1008EE00629FF001729FBB27F00DB11D639FAA2777
:1008FE00F00DB11DAA1F649F6627B00DA11D661FC6
:10090E00829F2227B00DA11D621F739FB00DA11DE6
:10091E00621F839FA00D611D221F749F3327A00DA0
:10092E00611D231F849F600D211D822F762F6A2F3C
:10093E0011249F5750409AF0F1F088234AF0EE0FA1
:10094E00FF1FBB1F661F771F881F91505040A9F7CE
:10095E009E3F510580F00C9408070C9402075F3FF0
:10096E00E4F3983ED4F3869577956795B795F7950A
:10097E00E7959F5FC1F7FE2B880F911D9695879582
:04098E0097F9089538
:1009920011C00E94F30638F00E94FA0620F039F4E2
:1009A2009F3F19F426F40C9412070EF4E095E7FB2E
:1009B2000C940807E92F0E941A0658F3BA17620727
:1009C20073078407950720F079F4A6F50C940107C4
:1009D2000EF4E0950B2EBA2FA02D0B01B901900158
:1009E2000C01CA01A0011124FF27591B99F0593F9C
:1009F20050F4503E68F11A16F040A22F232F342FE4
:100A02004427585FF3CF469537952795A795F04031
:100A12005395C9F77EF41F16BA0B620B730B840B46
:100A2200BAF09150A1F0FF0FBB1F661F771F881FFE
:100A3200C2F70EC0BA0F621F731F841F48F4879556
:100A420077956795B795F7959E3F08F0B0CF939548
:0E0A5200880F08F09927EE0F97958795089565
:100A60008F929F92AF92BF92CF92DF92EF92FF92BE
:100A70000F931F93CF93DF935C016B017A01E90120
:100A80001816190654F4812C912C0E9418028FEF2D
:100A9000881A980AA814B904C1F7AC14BD0444F428
:100AA0000E94DC029FEFA91AB90AAC14BD04C4F37A
:100AB000CE14DF0444F40E9418028FEFC81AD80A3B
:100AC000CE14DF04C4F3EC16FD0644F40E94540176
:100AD0009FEFE91AF90AEC16FD06C4F3C017D10717
:100AE00034F40E9418022196C017D107D4F389EF7D
:100AF00090E00197F1F700C00000DF91CF911F91C6
:100B00000F91FF90EF90DF90CF90BF90AF909F90AC
:040B10008F90089525
:100B1400E89409C097FB3EF4909580957095619593
:100B24007F4F8F4F9F4F9923A9F0F92F96E9BB2749
:100B34009395F695879577956795B795F111F8CFC5
:100B4400FAF4BB0F11F460FF1BC06F5F7F4F8F4F30
:100B54009F4F16C0882311F096E911C0772321F026
:100B64009EE8872F762F05C0662371F096E8862FBE
:100B740070E060E02AF09A95660F771F881FDAF715
:0A0B8400880F9695879597F908955C
:100B8E000E94220688F09F5798F0B92F9927B751E7
:100B9E00B0F0E1F0660F771F881F991F1AF0BA9513
:100BAE00C9F714C0B13091F00E940107B1E0089569
:100BBE000C940107672F782F8827B85F39F0B93F5B
:100BCE00CCF3869577956795B395D9F73EF49095C6
:0E0BDE008095709561957F4F8F4F9F4F0895C2
:100BEC00DC011896ED91FC91199710821A96ED91F3
:100BFC00FC911B971082DB011896ED91FC911997D3
:100C0C0010821A96ED91FC911B971082DA011896BE
:100C1C00ED91FC91199710821A96ED91FC911B970E
:080C2C00108280E090E00895C1
:100C340057FD9058440F551F59F05F3F71F0479589
:100C4400880F97FB991F61F09F3F79F0879508956E
:100C5400121613061406551FF2CF4695F1DF08C08D
:100C6400161617061806991FF1CF869571056105AA
:040C74000894089543
:100C7800EF92FF920F931F93CF937C018C01C0E0FA
:100C88000E94DC06882339F0C33629F0CF5FF801CB
:100C980081938F01F5CFF701EC0FF11D108280E0F1
:0E0CA80090E0CF911F910F91FF90EF90089573
:100CB60090E088ED84BF909361001092E6058FEF77
:100CC6008093010480936104E0E0FAE091E093836D
:100CD60086A387A310A612A614A611A613A615A668
:0A0CE60087E781838BE08083089587
:100CF000E0E2F8E08AE09AE18087918783E08783E9
:100D0000A0E4B4E081E011968C93119782E01296F2
:080D10008C9380EC86830895AA
:100D180080E090E00E94780688ED84BF8CE18093A3
:100D28006800E0E6F0E0858180FDFDCF80E10E946B
:080D3800C3060E945B0608954A
:100D400022E230E4FC012083318381E190E4FB0165
:100D50008083918380E090E4FA018083918380E036
:040D600090E0089582
:100D6400092E0394000C11F4882352F0BB0F40F4B5
:100D7400BF2B11F460FF04C06F5F7F4F8F4F9F4FF5
:020D84000895D0
:100D860095E09093B000E0E0F6E091E89083118260
:0C0D960097E09283808780E090E0089551
:100DA200EC010E941A070E941907CE010E941B073C
:060DB200CE010E941707AC
:100DB800E0E2F8E084818823ECF78091200890E055
:020DC80008958C
:0E0DCA005058BB27AA270E94C9040C94B206F9
:0E0DD8000E94C7056894B1110C94020708959B
:0E0DE60000240A94161617061806090608952A
:0E0DF40000240A94121613061406050608952C
:0E0E0200E894BB2766277727CB0197F9089560
:0C0E100097F99F6780E870E060E00895AB
:080E1C000E945F040C94B20671
:060E24009FEF80EC089531
:040E2A000C94000024
:040E2E000E948B0093
:020E3200089521
:020E340008951F
:020E360008951D
:100E38000000000000000000290A280A400411648C
:010E480004A5
:100E49000000000000000000290A2B0A402010645D
:010E59000494
:100E5A0000000000000000002D0A2A0A02100764A0
:010E6A000483
:0400000300000D18D4
:00000001FF
