:100000000C9458000C944E010C944E010C944E012B
:100010000C944E010C944E010C944E010C944E0124
:100020000C944E010C944E010C944E010C944E0114
:100030000C944E010C944E010C944E010C944E0104
:100040000C944E010C944E010C944E010C944E01F4
:100050000C944E010C944E010C944E010C944E01E4
:100060000C944E010C944E010C944E010C944E01D4
:100070000C944E010C944E010C944E010C944E01C4
:100080000C944E010C944E010C944E010C944E01B4
:100090000C944E010C944E010C944E010C944E01A4
:1000A0000C944E010C944E01400040330002AA0013
:1000B000809101108F7C8060806898ED94BF809360
:1000C000011011241FBECFEFCDBFDFE7DEBFE8EA8E
:1000D000F0E040E019C0B791A791379127910791BF
:1000E00007FD0EC097918791EF01F92FE82F0BBF05
:1000F00007900D92A217B307D9F7FE011BBE04C0EB
:100100001D92A217B307E1F7EF3AF40721F70E9417
:0A011000D1000C944301F894FFCFD6
:10011A00FC01621B730B9B01240F351F332314F45C
:10012A002F5F3F4F35952795CB01841B950BAC016B
:10013A0012F44F5F5F4F55954795A785B0899C91FB
:10014A00987F9C93332354F4319521953109A785DF
:10015A00B0899C918485892B8C9302C0108211826C
:10016A00552354F4519541955109A785B0899C911D
:10017A008585892B8C9302C012821382A085B18552
:10018A002C930284F385E02D408381E090E0672B75
:08019A0011F080E090E00895EF
:1001A200CF93DF93CDB7DEB72697CDBFDEBF0E94D8
:1001B2000301AE014B5F5F4FBE016D5F7F4FCE010A
:1001C20001960E94260125EF30E044E150E061EE05
:1001D20070E089819A810E948D0025EF30E044E130
:1001E20050E061EE70E08B819C810E948D0025EFD2
:1001F20030E044E150E061EE70E08D819E810E942A
:040202008D00FFCF9D
:1002060090E088ED84BF909361001092E6058FEF31
:100216008093010480936104E0E0FAE091E0938327
:1002260086A387A380E880A780E482A780EC84A7C2
:1002360080E281A780EA83A780EE85A787E781838E
:060246008BE080830895A7
:10024C0022E230E4FC012083318321E130E4FB0124
:10025C002083318320E030E4FA012083318325EFC1
:10026C0030E045E050E06AE070E0FC018081918173
:0A027C000E948D0080E090E00895DC
:10028600EC010E9453010E945201CE010E945401CA
:06029600CE010E945001A0
:04029C000C940000BE
:0402A0000E948B002D
:0202A4000895BB
:0202A6000895B9
:0202A8000895B7
:1002AA0000000000000000002C0A280A2040026416
:0102BA00043F
:1002BB0000000000000000002D0A2A0A081001644B
:0102CB00042E
:1002CC000000000000000000290A2B0A0204006450
:0102DC00041D
:00000001FF
