:100000000C9458000C9430010C9430010C94300185
:100010000C9430010C9430010C9430010C9430019C
:100020000C9430010C9430010C9430010C9430018C
:100030000C9430010C9430010C9430010C9430017C
:100040000C9430010C9430010C9430010C9430016C
:100050000C9430010C9430010C9430010C9430015C
:100060000C9430010C9430010C9430010C9430014C
:100070000C9430010C9430010C9430010C9430013C
:100080000C9430010C9430010C9430010C9430012C
:100090000C9430010C9430010C9430010C9430011C
:1000A0000C9430010C9430014000403300026E008B
:1000B000809101108F7C8060806898ED94BF809360
:1000C000011011241FBECFEFCDBFDFE7DEBFE8EA8E
:1000D000F0E040E019C0B791A791379127910791BF
:1000E00007FD0EC097918791EF01F92FE82F0BBF05
:1000F00007900D92A217B307D9F7FE011BBE04C0EB
:100100001D92A217B307E1F7EF3AF40721F70E9417
:0A011000D1000C942501F894FFCFF4
:10011A00FC01621B730B9B01240F351F332314F45C
:10012A002F5F3F4F35952795CB01841B950BAC016B
:10013A0012F44F5F5F4F55954795A785B0899C91FB
:10014A00987F9C93332354F4319521953109A785DF
:10015A00B0899C918485892B8C9302C0108211826C
:10016A00552354F4519541955109A785B0899C911D
:10017A008585892B8C9302C012821382A085B18552
:10018A002C930284F385E02D408381E090E0672B75
:08019A0011F080E090E00895EF
:1001A2000E94020120E030E04FEF50E060E070E09A
:1001B20082E290E40E948D0020E030E04FEF50E0B8
:1001C20060E070E081E190E40E948D0020E030E088
:1001D2004FEF50E060E070E080E090E40E948D001C
:1001E20081E090E002C080E090E0E7EAF1E631973A
:1001F200F1F700C0000001968F3F910509F09CF7CE
:02020200F4CF37
:1002040090E088ED84BF909361001092E6058FEF33
:100214008093010480936104E0E0FAE091E0938329
:1002240086A387A380E880A780E482A780EC84A7C4
:1002340080E281A780EA83A780EE85A787E7818390
:060244008BE080830895A9
:10024A00EC010E9435010E943401CE010E94360160
:06025A00CE010E943201FA
:040260000C940000FA
:040264000E948B0069
:020268000895F7
:02026A000895F5
:02026C000895F3
:10026E0000000000000000002C0A280A2040116443
:01027E00047B
:10027F0000000000000000002D0A2A0A0810106478
:01028F00046A
:100290000000000000000000290A2B0A0204076485
:0102A0000459
:00000001FF
