:100000000C9457000C9478030C9478030C947803A8
:100010000C9478030C9478030C9478030C94780374
:100020000C9478030C9478030C9478030C94780364
:100030000C9478030C9478030C9478030C94780354
:100040000C9478030C9478030C9478030C94780344
:100050000C9478030C9478030C9478030C94780334
:100060000C9478030C9478030C9478030C94780324
:100070000C9478030C9478030C9478030C94780314
:100080000C9478030C9478030C9478030C94780304
:100090000C9478030C9478030C9478030C947803F4
:1000A0000C9478030C947803400040028000809107
:1000B00001108F7C8060806898ED94BF8093011060
:1000C00011241FBECFEFCDBFDFE7DEBFE8EAF0E0CF
:1000D00040E019C0B791A79137912791079107FD8B
:1000E0000EC097918791EF01F92FE82F0BBF079072
:1000F0000D92A217B307D9F7FE011BBE04C01D92D3
:10010000A217B307E1F7ED3AF40721F70E94320393
:080110000C946D03F894FFCF7D
:10011800E0E0F4E080E2858300C000C00000868350
:1001280094E09A95F1F7858300C000C000008683AB
:1001380094E09A95F1F7858300C000C0000086839B
:1001480094E09A95F1F7858300C000C0000086838B
:1001580094E09A95F1F7858300C000C0000086837B
:1001680094E09A95F1F7858300C000C0000086836B
:1001780094E09A95F1F7858300C000C0000086835B
:1001880094E09A95F1F7858300C000C0000086834B
:1001980094E09A95F1F7858393E09A95F1F700003A
:1001A800868300C00000858393E09A95F1F70000EC
:1001B800868300C00000858393E09A95F1F70000DC
:1001C800868300C00000858393E09A95F1F70000CC
:1001D800868300C00000858393E09A95F1F70000BC
:1001E800868300C00000858393E09A95F1F70000AC
:1001F800868300C00000858393E09A95F1F700009C
:10020800868300C00000858393E09A95F1F700008B
:10021800868300C00000858300C000C0000086837C
:1002280094E09A95F1F7858300C000C000008683AA
:1002380094E09A95F1F7858300C000C0000086839A
:1002480094E09A95F1F7858300C000C0000086838A
:1002580094E09A95F1F7858300C000C0000086837A
:1002680094E09A95F1F7858300C000C0000086836A
:1002780094E09A95F1F7858300C000C0000086835A
:1002880094E09A95F1F7858300C000C0000086834A
:0802980084E08A95F1F7089556
:1002A000E0E0F4E080E2858300C000C000008683C7
:1002B00094E09A95F1F7858300C000C00000868322
:1002C00094E09A95F1F7858300C000C00000868312
:1002D00094E09A95F1F7858300C000C00000868302
:1002E00094E09A95F1F7858300C000C000008683F2
:1002F00094E09A95F1F7858300C000C000008683E2
:1003000094E09A95F1F7858300C000C000008683D1
:1003100094E09A95F1F7858300C000C000008683C1
:1003200094E09A95F1F7858300C000C000008683B1
:1003300094E09A95F1F7858300C000C000008683A1
:1003400094E09A95F1F7858300C000C00000868391
:1003500094E09A95F1F7858300C000C00000868381
:1003600094E09A95F1F7858300C000C00000868371
:1003700094E09A95F1F7858300C000C00000868361
:1003800094E09A95F1F7858300C000C00000868351
:1003900094E09A95F1F7858300C000C00000868341
:1003A00094E09A95F1F7858300C000C00000868331
:1003B00094E09A95F1F7858300C000C00000868321
:1003C00094E09A95F1F7858300C000C00000868311
:1003D00094E09A95F1F7858300C000C00000868301
:1003E00094E09A95F1F7858300C000C000008683F1
:1003F00094E09A95F1F7858300C000C000008683E1
:1004000094E09A95F1F7858300C000C000008683D0
:1004100094E09A95F1F7858300C000C000008683C0
:0804200084E08A95F1F70895CC
:10042800E0E0F4E080E2858393E09A95F1F700003C
:10043800868300C00000858393E09A95F1F7000059
:10044800868300C00000858393E09A95F1F7000049
:10045800868300C00000858393E09A95F1F7000039
:10046800868300C00000858393E09A95F1F7000029
:10047800868300C00000858393E09A95F1F7000019
:10048800868300C00000858393E09A95F1F7000009
:10049800868300C00000858393E09A95F1F70000F9
:1004A800868300C00000858393E09A95F1F70000E9
:1004B800868300C00000858393E09A95F1F70000D9
:1004C800868300C00000858393E09A95F1F70000C9
:1004D800868300C00000858393E09A95F1F70000B9
:1004E800868300C00000858393E09A95F1F70000A9
:1004F800868300C00000858393E09A95F1F7000099
:10050800868300C00000858393E09A95F1F7000088
:10051800868300C00000858393E09A95F1F7000078
:10052800868300C00000858393E09A95F1F7000068
:10053800868300C00000858393E09A95F1F7000058
:10054800868300C00000858393E09A95F1F7000048
:10055800868300C00000858393E09A95F1F7000038
:10056800868300C00000858393E09A95F1F7000028
:10057800868300C00000858393E09A95F1F7000018
:10058800868300C00000858393E09A95F1F7000008
:10059800868300C00000858393E09A95F1F70000F8
:0805A800868300C000000895E5
:1005B0008F929F92AF92BF92CF92DF92EF92FF9273
:1005C0000F931F93CF93DF935C016B017A01E901D5
:1005D0001816190654F4812C912C0E9450018FEFAB
:1005E000881A980AA814B904C1F7AC14BD0444F4DD
:1005F0000E9414029FEFA91AB90AAC14BD04C4F3F7
:10060000CE14DF0444F40E9450018FEFC81AD80AB8
:10061000CE14DF04C4F3EC16FD0644F40E948C00F3
:100620009FEFE91AF90AEC16FD06C4F3C017D107CB
:1006300034F40E9450012196C017D107D4F389EFFA
:1006400090E00197F1F700C00000DF91CF911F917A
:100650000F91FF90EF90DF90CF90BF90AF909F9061
:040660008F900895DA
:1006640080E28093010488ED84BF8CE1809368006C
:10067400E0E6F0E0858180FDFDCF8091004090911F
:100684000140459724F0109200401092014060917F
:100694000040709101409B01215F3F4F6B5F7F4F92
:1006A40002E310E04FE050E085E090E00E94D802C1
:1006B4008091004090910140019680930040909376
:1006C40001402FE38DE093E0215080409040E1F71A
:0606D40000C00000D2CFBF
:1006DA00EC010E947D030E947C03CE010E947E03EE
:0606EA00CE010E947A031C
:0406F0000C94000066
:0406F4000E948A00D6
:0206F800089563
:0206FA00089561
:0206FC0008955F
:00000001FF
