:100000000C9454000C943D010C943D010C943D0162
:100010000C943D010C943D010C943D010C943D0168
:100020000C943D010C943D010C943D010C943D0158
:100030000C943D010C943D010C943D010C943D0148
:100040000C943D010C943D010C943D010C943D0138
:100050000C943D010C943D010C943D010C943D0128
:100060000C943D010C943D010C943D010C943D0118
:100070000C943D010C943D010C943D010C943D0108
:100080000C943D010C943D010C943D010C943D01F8
:100090000C943D010C943D010C943D010C943D01E8
:1000A0000C943D010C943D01809101108F7C806087
:1000B000806898ED94BF8093011011241FBECFEF8C
:1000C000CDBFDFE7DEBFE8EAF0E040E019C0B7915E
:1000D000A79137912791079107FD0EC097918791BE
:1000E000EF01F92FE82F0BBF07900D92A217B3076E
:1000F000D9F7FE011BBE04C01D92A217B307E1F79A
:10010000E83AF40721F70E9489000C943201F89430
:02011000FFCF1F
:1001120081E080930104E0E6F0E0808388ED84BF13
:1001220088E98087E0E0F4E081E095E49A95F1F7D0
:100132000000858385838683868386838583858382
:100142008683868386838683858385838683868367
:100152008683868385838583868386838683868357
:100162008583858386838683868386838583858349
:100172008683868386838683858385838683868337
:100182008683868385838583868386838683868327
:100192008583858386838683868386838583858319
:1001A2008683868386838683858385838683868307
:1001B20086838683858385838683868386838683F7
:1001C20085838583868386838683868385838583E9
:1001D20086838683868386838583858386838683D7
:1001E20086838683858385838683868386838683C7
:1001F20085838583868386838683868386838583B8
:1002020085838683868386838683868385838583A7
:100212008683868386838683868385838583868396
:100222008683868386838683858385838683868386
:100232008683868386838583858386838683868376
:100242008683868385838583868386838683868366
:100252008683858385838683868386838683868356
:0202620064CF67
:10026400EC010E9442010E944101CE010E9443011F
:06027400CE010E943F01D3
:04027A000C940000E0
:04027E000E94870053
:020282000895DD
:020284000895DB
:020286000895D9
:00000001FF
