:100000000C9457000C9485010C9485010C94850187
:100010000C9485010C9485010C9485010C94850148
:100020000C9485010C9485010C9485010C94850138
:100030000C9485010C9485010C9485010C9463014A
:100040000C9485010C9485010C9485010C94850118
:100050000C9485010C9485010C9485010C94850108
:100060000C9485010C9485010C9485010C948501F8
:100070000C9485010C9485010C9485010C94060167
:100080000C9485010C9485010C9485010C948501D8
:100090000C9485010C9485010C9485010C948501C8
:1000A0000C9485010C9485014000400D80008091E6
:1000B00001108F7C8060806898ED94BF8093011060
:1000C00011241FBECFEFCDBFDFE7DEBFE8EAF0E0CF
:1000D00040E019C0B791A79137912791079107FD8B
:1000E0000EC097918791EF01F92FE82F0BBF079072
:1000F0000D92A217B307D9F7FE011BBE04C01D92D3
:10010000A217B307E1F7ED3AF40721F70E948C003C
:080110000C947A01F894FFCF72
:1001180088ED84BF8CE180936800E0E6F0E085819B
:1001280080FDFDCFE0E0F9E083E486838381816090
:10013800838381E0858321E040E060E083E00E94E2
:100148002E0181EE94E00197F1F700C0000021E054
:1001580040E060E083E00E942E0181EE94E0019788
:10016800F1F700C0000021E040E060E083E00E9479
:100178002E0181EE94E00197F1F700C0000021E024
:1001880040E060E082E00E942E0121E040E060E073
:1001980082E00E942E0121E040E060E080E00E94C1
:1001A8002E0121E040E060E080E00E942E0121E085
:1001B80040E060E08EE00E942E0121E040E060E037
:1001C80080E00E942E0121E040E060E086E00E948D
:1001D8002E0121E040E060E080E00E942E0121E055
:1001E80040E060E081E00E942E0121E040E061E013
:1001F80085E00E942E0121E040E061E087E00E9456
:040208002E01FFCFF5
:10020C001F921FB61F9211248F938BB78F939F93BE
:10021C00EF93FF93E0E2FBE081E086838485958594
:10022C00809302409093034080910C408F5F8F31FC
:10023C0018F480930C4002C010920C40FF91EF9187
:10024C009F918F918BBF8F911F901FBE1F90189500
:10025C00CF9398E0299F900111248295807F282BC1
:10026C00C42FCC0FC22BC62B6C2F87E20E944A01E5
:10027C006C2F646087E20E944A016C2F6B7F87E2CF
:08028C000E944A01CF91089580
:10029400880F80930709E0E0F9E0858186FFFDCFB0
:1002A40060930809E0E0F9E0858186FFFDCF83E0F3
:1002B4008093040989EF90E00197F1F700C00000F2
:0202C40008959B
:1002C6008F938BB78F939F93EF93FF93E0E1FBE0C0
:1002D60081E086838485958580930A4090930B40C0
:0E02E600FF91EF919F918F918BBF8F91189593
:1002F400EC010E948A010E948901CE010E948B01B7
:06030400CE010E948701FA
:04030A000C9400004F
:04030E000E948A00BF
:0203120008954C
:0203140008954A
:02031600089548
:00000001FF
