:100000000C9457000C94DE000C94DE000C94DE007F
:100010000C94DE000C94DE000C94DE000C94DE00E8
:100020000C94DE000C94DE000C94DE000C94DE00D8
:100030000C94DE000C94DE000C94DE000C94DE00C8
:100040000C94DE000C94DE000C94DE000C94DE00B8
:100050000C94DE000C94DE000C94DE000C94DE00A8
:100060000C94DE000C94DE000C94DE000C94DE0098
:100070000C94DE000C94DE000C94DE000C94B300B3
:100080000C94DE000C94DE000C94DE000C94DE0078
:100090000C94DE000C94DE000C94DE000C94DE0068
:1000A0000C94DE000C94DE004000400B8000809138
:1000B00001108F7C8060806898ED94BF8093011060
:1000C00011241FBECFEFCDBFDFE7DEBFE8EAF0E0CF
:1000D00040E019C0B791A79137912791079107FD8B
:1000E0000EC097918791EF01F92FE82F0BBF079072
:1000F0000D92A217B307D9F7FE011BBE04C01D92D3
:10010000A217B307E1F7ED3AF40721F70E948C003C
:080110000C94D300F894FFCF1A
:10011800E0E0F4E081818068818381818078818357
:1001280081E48093100281E080934202E0E2FBE0E8
:100138008583848394E09183808378942091004020
:1001480030910140E0E0F4E02115310521F484818B
:0E01580080688483F9CF84818F778483F5CF0C
:100166008F938FB78F938BB78F939F93EF93FF9355
:10017600E0E2FBE081E0868384859585E0910A4094
:10018600F0E0EE0FFF1FE050F04C80839183FF916B
:10019600EF919F918F918BBF8F918FBF8F91189504
:1001A600EC010E94E3000E94E200CE010E94E400FE
:0601B600CE010E94E000F2
:0401BC000C9400009F
:0401C0000E948A000F
:0201C40008959C
:0201C60008959A
:0201C800089598
:00000001FF
