:100000000C9454000C94AB000C94AB000C94AB001B
:100010000C94AB000C94AB000C94AB000C94AB00B4
:100020000C94AB000C94AB000C94AB000C94AB00A4
:100030000C94AB000C94AB000C94AB000C94AB0094
:100040000C94AB000C94AB000C94AB000C94AB0084
:100050000C94AB000C94AB000C94AB000C94AB0074
:100060000C94AB000C94AB000C94AB000C94AB0064
:100070000C94AB000C94AB000C94AB000C94AB0054
:100080000C94AB000C94AB000C94AB000C94AB0044
:100090000C94AB000C94AB000C94AB000C94AB0034
:1000A0000C94AB000C94AB00809101108F7C8060AD
:1000B000806898ED94BF8093011011241FBECFEF8C
:1000C000CDBFDFE7DEBF0E9469000C94A000F8946A
:0200D000FFCF60
:1000D2000E9482008FEF8093010410926104C0E0BD
:1000E200D4E01FEF89EF90E00197F1F700C0000024
:1000F2000E949100853C994010F01C83F3CF1C8232
:02010200F1CF3B
:1001040085E08093B000E0E0F6E081E8808311822E
:0E01140087E0828384E0808780E090E0089599
:1001220081E080930A06E0E0F6E0858580FFFDCF5E
:0E013200E0E0F6E081E08587808991890895FC
:10014000EC010E94B0000E94AF00CE010E94B100FD
:06015000CE010E94AD008B
:040156000C94000005
:04015A000E94670098
:02015E00089502
:02016000089500
:020162000895FE
:00000001FF
