:100000000C9457000C947E070C947E070C947E078A
:100010000C947E070C947E070C947E070C947E074C
:100020000C947E070C947E070C947E070C947E073C
:100030000C947E070C947E070C947E070C94D606D5
:100040000C947E070C947E070C947E070C947E071C
:100050000C947E070C947E070C947E070C947E070C
:100060000C947E070C947E070C947E070C947E07FC
:100070000C947E070C947E070C947E070C94ED067E
:100080000C947E070C947E070C947E070C947E07DC
:100090000C947E070C947E070C947E070C947E07CC
:1000A0000C947E070C947E074000400C80008091E9
:1000B00001108F7C8060806898ED94BF8093011060
:1000C00011241FBECFEFCDBFDFE7DEBFE8EAF0E0CF
:1000D00040E019C0B791A79137912791079107FD8B
:1000E0000EC097918791EF01F92FE82F0BBF079072
:1000F0000D92A217B307D9F7FE011BBE04C01D92D3
:10010000A217B307E1F7ED3AF40721F70E948C003C
:080110000C944A07F894FFCF9C
:10011800CF93DF93CDB7DEB76A97CDBFDEBF88ED4B
:1001280084BF8CE180936800E0E6F0E0858180FD83
:10013800FDCFE0E0F9E083E48683838181608383F7
:1001480011E0158321E040E060E083E00E94A10611
:100158008FE19EE40197F1F700C0000021E040E044
:1001680060E083E00E94A106EFE1FEE43197F1F739
:1001780000C0000021E040E060E083E00E94A106AA
:100188008FE19EE40197F1F700C0000021E040E014
:1001980060E082E00E94A10621E040E060E082E0A9
:1001A8000E94A10621E040E060E080E00E94A106F4
:1001B80021E040E060E080E00E94A10621E040E00C
:1001C80060E08EE00E94A10621E040E060E080E06F
:1001D8000E94A10621E040E060E086E00E94A106BE
:1001E80021E040E060E080E00E94A10621E040E0DC
:1001F80060E081E00E94A10621E040E061E085E046
:100208000E94A10621E040E061E087E00E94A1068B
:10021800E0E0F4E081818162818381818172818360
:10022800A0E0B2E081E450968C935097109340027E
:10023800E0E1FBE01583148384E08183108394E478
:1002480051969C9392E090934202E0E2FBE0158382
:1002580014838183108302E310E029E130E04FE04A
:1002680050E06FE070E085E090E00E948A057894A5
:10027800412C512C612C712C198E1A8E1F8A188EC4
:100288000F2EFCEFAF2EF8E0BF2EF02D812C912C15
:1002980000E010E00F2EF0E02F2EF0E43F2EF02DBE
:1002A800C12C6894DD24D2F80E943D07EFE3FFE1FA
:1002B8003197F1F700C000000F5F1F4F0536110599
:1002C8000CF470C000910A4010910B4021E040E00E
:1002D80060E080E00E94A10621E040E060E081E06B
:1002E8000E94A106B80180E090E00E94E40520E0A9
:1002F80030E040E85DE30E94770728E23EE74CE003
:100308005DE30E94770720E030E040E05FE30E9471
:1003180077070E945507DC01CB01AE014B5E5F4FAA
:10032800BE016F5F7F4F0E942106ED88FE8887011E
:10033800015011098AF0EE0CFF1C81E090E08C0F4F
:100348009D1FE80EF91EF701929182917F010E948C
:10035800810401501109B8F78114910461F021E07A
:1003680040E061E084E00E94A10621E040E061E015
:100378008DE00E94A1064114510491F021E040E073
:1003880061E084E00E94A10621E041E061E08DE0A7
:100398000E94A106C3010E94810400E010E002C08F
:1003A80000E010E0F10182819381893EF3E09F072C
:1003B80088F0A816B90638F4F60184818F7D848305
:1003C800812C912C07C0F601848180628483882463
:1003D8008394912CF601808588238CF58085882369
:1003E80064F48F89988D892B41F092E0A91AB1089D
:1003F800E1E06E1A71081F8A188EF601808586FF63
:1004080027C0808586FF0CC0898D9A8D892B41F085
:1004180092E0A90EB11CEFEF6E1A7E0A198E1A8EA1
:10042800F601808586FF40CF808588230CF03CCF7D
:1004380081E0452809F080E0482E512C35CFF6019F
:100448008085882394F281E090E08F8B988FD5CFB8
:10045800F601808586FDDCCF81E090E0898F9A8F58
:02046800DFCFE4
:10046A00E0E0F4E080E2858300C000C000008683FB
:10047A0094E09A95F1F7858300C000C00000868356
:10048A0094E09A95F1F7858300C000C00000868346
:10049A0094E09A95F1F7858300C000C00000868336
:1004AA0094E09A95F1F7858300C000C00000868326
:1004BA0094E09A95F1F7858300C000C00000868316
:1004CA0094E09A95F1F7858300C000C00000868306
:1004DA0094E09A95F1F7858300C000C000008683F6
:1004EA0094E09A95F1F7858393E09A95F1F70000E5
:1004FA00868300C00000858393E09A95F1F7000097
:10050A00868300C00000858393E09A95F1F7000086
:10051A00868300C00000858393E09A95F1F7000076
:10052A00868300C00000858393E09A95F1F7000066
:10053A00868300C00000858393E09A95F1F7000056
:10054A00868300C00000858393E09A95F1F7000046
:10055A00868300C00000858393E09A95F1F7000036
:10056A00868300C00000858300C000C00000868327
:10057A0094E09A95F1F7858300C000C00000868355
:10058A0094E09A95F1F7858300C000C00000868345
:10059A0094E09A95F1F7858300C000C00000868335
:1005AA0094E09A95F1F7858300C000C00000868325
:1005BA0094E09A95F1F7858300C000C00000868315
:1005CA0094E09A95F1F7858300C000C00000868305
:1005DA0094E09A95F1F7858300C000C000008683F5
:0805EA0084E08A95F1F7089501
:1005F200E0E0F4E080E2858300C000C00000868372
:1006020094E09A95F1F7858300C000C000008683CC
:1006120094E09A95F1F7858300C000C000008683BC
:1006220094E09A95F1F7858300C000C000008683AC
:1006320094E09A95F1F7858300C000C0000086839C
:1006420094E09A95F1F7858300C000C0000086838C
:1006520094E09A95F1F7858300C000C0000086837C
:1006620094E09A95F1F7858300C000C0000086836C
:1006720094E09A95F1F7858300C000C0000086835C
:1006820094E09A95F1F7858300C000C0000086834C
:1006920094E09A95F1F7858300C000C0000086833C
:1006A20094E09A95F1F7858300C000C0000086832C
:1006B20094E09A95F1F7858300C000C0000086831C
:1006C20094E09A95F1F7858300C000C0000086830C
:1006D20094E09A95F1F7858300C000C000008683FC
:1006E20094E09A95F1F7858300C000C000008683EC
:1006F20094E09A95F1F7858300C000C000008683DC
:1007020094E09A95F1F7858300C000C000008683CB
:1007120094E09A95F1F7858300C000C000008683BB
:1007220094E09A95F1F7858300C000C000008683AB
:1007320094E09A95F1F7858300C000C0000086839B
:1007420094E09A95F1F7858300C000C0000086838B
:1007520094E09A95F1F7858300C000C0000086837B
:1007620094E09A95F1F7858300C000C0000086836B
:0807720084E08A95F1F7089577
:10077A00E0E0F4E080E2858393E09A95F1F70000E7
:10078A00868300C00000858393E09A95F1F7000004
:10079A00868300C00000858393E09A95F1F70000F4
:1007AA00868300C00000858393E09A95F1F70000E4
:1007BA00868300C00000858393E09A95F1F70000D4
:1007CA00868300C00000858393E09A95F1F70000C4
:1007DA00868300C00000858393E09A95F1F70000B4
:1007EA00868300C00000858393E09A95F1F70000A4
:1007FA00868300C00000858393E09A95F1F7000094
:10080A00868300C00000858393E09A95F1F7000083
:10081A00868300C00000858393E09A95F1F7000073
:10082A00868300C00000858393E09A95F1F7000063
:10083A00868300C00000858393E09A95F1F7000053
:10084A00868300C00000858393E09A95F1F7000043
:10085A00868300C00000858393E09A95F1F7000033
:10086A00868300C00000858393E09A95F1F7000023
:10087A00868300C00000858393E09A95F1F7000013
:10088A00868300C00000858393E09A95F1F7000003
:10089A00868300C00000858393E09A95F1F70000F3
:1008AA00868300C00000858393E09A95F1F70000E3
:1008BA00868300C00000858393E09A95F1F70000D3
:1008CA00868300C00000858393E09A95F1F70000C3
:1008DA00868300C00000858393E09A95F1F70000B3
:1008EA00868300C00000858393E09A95F1F70000A3
:0808FA00868300C00000089590
:100902008130910569F421E040E061E083E00E94DA
:10091200A10621E040E061E081E00E94A106089585
:100922008230910569F421E040E061E083E00E94B9
:10093200A10621E040E061E082E00E94A106089564
:100942008330910569F421E040E061E083E00E9498
:10095200A10621E040E061E083E00E94A106089543
:100962008430910569F421E040E061E083E00E9477
:10097200A10621E040E061E084E00E94A106089522
:100982008530910569F421E040E061E083E00E9456
:10099200A10621E040E061E085E00E94A106089501
:1009A2008630910569F421E040E061E083E00E9435
:1009B200A10621E040E061E086E00E94A1060895E0
:1009C2008730910569F421E040E061E083E00E9414
:1009D200A10621E040E061E087E00E94A1060895BF
:1009E2008830910569F421E040E061E083E00E94F3
:1009F200A10621E040E061E088E00E94A10608959E
:100A02008930910569F421E040E061E083E00E94D1
:100A1200A10621E040E061E089E00E94A10608957C
:100A2200892B61F421E040E061E083E00E94A106AD
:0E0A320021E040E061E080E00E94A10608950E
:100A40000FC00E94630738F00E946A0720F09523C8
:100A500011F00C9471070C947B0711240C945D0722
:100A60000E947F0670F3959FC1F3950F50E0551FCC
:100A7000629FF001729FBB27F00DB11D639FAA27F3
:100A8000F00DB11DAA1F649F6627B00DA11D661F42
:100A9000829F2227B00DA11D621F739FB00DA11D63
:100AA000621F839FA00D611D221F749F3327A00D1D
:100AB000611D231F849F600D211D822F762F6A2FB9
:100AC00011249F5750409AF0F1F088234AF0EE0F1E
:100AD000FF1FBB1F661F771F881F91505040A9F74B
:100AE0009E3F510580F00C9471070C945D075F3FA9
:100AF000E4F3983ED4F3869577956795B795F79587
:100B0000E7959F5FC1F7FE2B880F911D96958795FE
:040B100097F90895B4
:100B14008F929F92AF92BF92CF92DF92EF92FF9209
:100B24000F931F93CF93DF935C016B017A01E9016B
:100B34001816190654F4812C912C0E94F9028FEF97
:100B4400881A980AA814B904C1F7AC14BD0444F473
:100B54000E94BD039FEFA91AB90AAC14BD04C4F3E3
:100B6400CE14DF0444F40E94F9028FEFC81AD80AA5
:100B7400CE14DF04C4F3EC16FD0644F40E943502DF
:100B84009FEFE91AF90AEC16FD06C4F3C017D10762
:100B940034F40E94F9022196C017D107D4F389EFE7
:100BA40090E00197F1F700C00000DF91CF911F9111
:100BB4000F91FF90EF90DF90CF90BF90AF909F90F8
:040BC4008F90089571
:100BC800E89409C097FB3EF49095809570956195DF
:100BD8007F4F8F4F9F4F9923A9F0F92F96E9BB2795
:100BE8009395F695879577956795B795F111F8CF11
:100BF800FAF4BB0F11F460FF1BC06F5F7F4F8F4F7C
:100C08009F4F16C0882311F096E911C0772321F071
:100C18009EE8872F762F05C0662371F096E8862F09
:100C280070E060E02AF09A95660F771F881FDAF760
:0A0C3800880F9695879597F90895A7
:100C4200EF92FF920F931F93CF93DF938B01EA01F1
:100C52001882198218161906DCF40F2EFAE0EF2E0C
:100C6200F12CF02D28813981A9014F5F5F4F488314
:100C72005983220F331FF801E20FF31FB7010E94BD
:100C8200040780839183862F972F1816190654F331
:0E0C9200DF91CF911F910F91FF90EF90089589
:100CA0000E94870688F09F5798F0B92F9927B7516F
:100CB000B0F0E1F0660F771F881F991F1AF0BA9500
:100CC000C9F714C0B13091F00E945C07B1E00895FB
:100CD0000C945C07672F782F8827B85F39F0B93FED
:100CE000CCF3869577956795B395D9F73EF49095B3
:0E0CF0008095709561957F4F8F4F9F4F0895AF
:100CFE0057FD9058440F551F59F05F3F71F04795BF
:100D0E00880F97FB991F61F09F3F79F087950895A3
:100D1E00121613061406551FF2CF4695F1DF08C0C2
:100D2E00161617061806991FF1CF869571056105DF
:040D3E000894089578
:100D4200CF9398E0299F900111248295807F282BD0
:100D5200C42FCC0FC22BC62B6C2F87E20E94BD067C
:100D62006C2F646087E20E94BD066C2F6B7F87E266
:080D72000E94BD06CF91089517
:100D7A00880F80930709E0E0F9E0858186FFFDCFBF
:100D8A0060930809E0E0F9E0858186FFFDCF83E002
:100D9A00809304098FE99FE00197F1F700C00000F2
:020DAA000895AA
:100DAC008F938BB78F939F93EF93FF93E0E1FBE0CF
:100DBC0081E086838485958580930A4090930B40CF
:0E0DCC00FF91EF919F918F918BBF8F911895A2
:100DDA008F938BB78F939F93EF93FF93E0E2FBE0A0
:100DEA0081E08683848595858093024090930340B1
:0E0DFA00FF91EF919F918F918BBF8F91189574
:100E080097FB072E16F4009407D077FD09D00E94AF
:100E1800180707FC05D03EF4909581959F4F0895DB
:080E2800709561957F4F08955C
:100E3000AA1BBB1B51E107C0AA1FBB1FA617B70700
:100E400010F0A61BB70B881F991F5A95A9F780951C
:080E50009095BC01CD0108954D
:100E5800092E0394000C11F4882352F0BB0F40F4C0
:100E6800BF2B11F460FF04C06F5F7F4F8F4F9F4F00
:020E78000895DB
:100E7A00E0E0F4E08481816084838AEB8A95F1F76B
:0A0E8A0000C084818E7F84830895E8
:100E9400EC010E9483070E948207CE010E9484070E
:060EA400CE010E94800750
:0E0EAA000E9450066894B1110C945D070895E3
:0E0EB800E894BB2766277727CB0197F90895AA
:0E0EC60000240A941616170618060906089549
:0E0ED40000240A94121613061406050608954B
:0C0EE20097F99F6780E870E060E00895D9
:080EEE000E9420050C942C0762
:060EF6009FEF80EC08955F
:040EFC000C94000052
:040F00000E948A00C1
:020F040008954E
:020F060008954C
:020F080008954A
:00000001FF
